{
  "_format": "hh3-artifact-1",
  "contractName": "PaperRegistry",
  "sourceName": "contracts/PaperRegistry.sol",
  "abi": [
    {
      "inputs": [
        {
          "internalType": "address",
          "name": "initialOwner",
          "type": "address"
        }
      ],
      "stateMutability": "nonpayable",
      "type": "constructor"
    },
    {
      "inputs": [],
      "name": "EmptyString",
      "type": "error"
    },
    {
      "inputs": [],
      "name": "InvalidStatus",
      "type": "error"
    },
    {
      "inputs": [],
      "name": "NotOwner",
      "type": "error"
    },
    {
      "inputs": [],
      "name": "PaperAlreadyExists",
      "type": "error"
    },
    {
      "inputs": [],
      "name": "PaperMissing",
      "type": "error"
    },
    {
      "inputs": [],
      "name": "Unauthorized",
      "type": "error"
    },
    {
      "inputs": [],
      "name": "ZeroAddress",
      "type": "error"
    },
    {
      "anonymous": false,
      "inputs": [
        {
          "indexed": true,
          "internalType": "bytes32",
          "name": "paperId",
          "type": "bytes32"
        },
        {
          "indexed": true,
          "internalType": "address",
          "name": "author",
          "type": "address"
        }
      ],
      "name": "DecisionAcknowledged",
      "type": "event"
    },
    {
      "anonymous": false,
      "inputs": [
        {
          "indexed": true,
          "internalType": "address",
          "name": "editor",
          "type": "address"
        },
        {
          "indexed": false,
          "internalType": "bool",
          "name": "allowed",
          "type": "bool"
        }
      ],
      "name": "EditorUpdated",
      "type": "event"
    },
    {
      "anonymous": false,
      "inputs": [
        {
          "indexed": true,
          "internalType": "address",
          "name": "previousOwner",
          "type": "address"
        },
        {
          "indexed": true,
          "internalType": "address",
          "name": "newOwner",
          "type": "address"
        }
      ],
      "name": "OwnershipTransferred",
      "type": "event"
    },
    {
      "anonymous": false,
      "inputs": [
        {
          "indexed": true,
          "internalType": "bytes32",
          "name": "paperId",
          "type": "bytes32"
        },
        {
          "indexed": true,
          "internalType": "address",
          "name": "publisher",
          "type": "address"
        },
        {
          "indexed": false,
          "internalType": "string",
          "name": "doi",
          "type": "string"
        }
      ],
      "name": "PaperPublished",
      "type": "event"
    },
    {
      "anonymous": false,
      "inputs": [
        {
          "indexed": true,
          "internalType": "bytes32",
          "name": "paperId",
          "type": "bytes32"
        },
        {
          "indexed": false,
          "internalType": "enum PaperRegistry.PaperStatus",
          "name": "status",
          "type": "uint8"
        }
      ],
      "name": "PaperStatusUpdated",
      "type": "event"
    },
    {
      "anonymous": false,
      "inputs": [
        {
          "indexed": true,
          "internalType": "bytes32",
          "name": "paperId",
          "type": "bytes32"
        },
        {
          "indexed": true,
          "internalType": "address",
          "name": "author",
          "type": "address"
        },
        {
          "indexed": false,
          "internalType": "string",
          "name": "title",
          "type": "string"
        }
      ],
      "name": "PaperSubmitted",
      "type": "event"
    },
    {
      "anonymous": false,
      "inputs": [
        {
          "indexed": true,
          "internalType": "bytes32",
          "name": "paperId",
          "type": "bytes32"
        },
        {
          "indexed": false,
          "internalType": "string",
          "name": "abstractCid",
          "type": "string"
        },
        {
          "indexed": false,
          "internalType": "string",
          "name": "submissionMetadataCid",
          "type": "string"
        }
      ],
      "name": "PaperUpdated",
      "type": "event"
    },
    {
      "anonymous": false,
      "inputs": [
        {
          "indexed": true,
          "internalType": "address",
          "name": "reviewManager",
          "type": "address"
        }
      ],
      "name": "ReviewManagerUpdated",
      "type": "event"
    },
    {
      "inputs": [
        {
          "internalType": "bytes32",
          "name": "paperId",
          "type": "bytes32"
        }
      ],
      "name": "acknowledgeDecision",
      "outputs": [],
      "stateMutability": "nonpayable",
      "type": "function"
    },
    {
      "inputs": [
        {
          "internalType": "bytes32",
          "name": "paperId",
          "type": "bytes32"
        }
      ],
      "name": "beginReview",
      "outputs": [],
      "stateMutability": "nonpayable",
      "type": "function"
    },
    {
      "inputs": [
        {
          "internalType": "bytes32",
          "name": "",
          "type": "bytes32"
        },
        {
          "internalType": "address",
          "name": "",
          "type": "address"
        }
      ],
      "name": "decisionAcknowledged",
      "outputs": [
        {
          "internalType": "bool",
          "name": "",
          "type": "bool"
        }
      ],
      "stateMutability": "view",
      "type": "function"
    },
    {
      "inputs": [
        {
          "internalType": "address",
          "name": "",
          "type": "address"
        }
      ],
      "name": "editors",
      "outputs": [
        {
          "internalType": "bool",
          "name": "",
          "type": "bool"
        }
      ],
      "stateMutability": "view",
      "type": "function"
    },
    {
      "inputs": [
        {
          "internalType": "bytes32",
          "name": "paperId",
          "type": "bytes32"
        }
      ],
      "name": "getPaper",
      "outputs": [
        {
          "components": [
            {
              "internalType": "bytes32",
              "name": "paperId",
              "type": "bytes32"
            },
            {
              "internalType": "address",
              "name": "author",
              "type": "address"
            },
            {
              "internalType": "string",
              "name": "title",
              "type": "string"
            },
            {
              "internalType": "string",
              "name": "category",
              "type": "string"
            },
            {
              "internalType": "string",
              "name": "abstractCid",
              "type": "string"
            },
            {
              "internalType": "string",
              "name": "submissionMetadataCid",
              "type": "string"
            },
            {
              "internalType": "string",
              "name": "publicationMetadataCid",
              "type": "string"
            },
            {
              "internalType": "string",
              "name": "doi",
              "type": "string"
            },
            {
              "internalType": "uint64",
              "name": "submittedAt",
              "type": "uint64"
            },
            {
              "internalType": "uint64",
              "name": "publishedAt",
              "type": "uint64"
            },
            {
              "internalType": "enum PaperRegistry.PaperStatus",
              "name": "status",
              "type": "uint8"
            }
          ],
          "internalType": "struct PaperRegistry.Paper",
          "name": "",
          "type": "tuple"
        }
      ],
      "stateMutability": "view",
      "type": "function"
    },
    {
      "inputs": [
        {
          "internalType": "bytes32",
          "name": "paperId",
          "type": "bytes32"
        }
      ],
      "name": "getPaperAuthor",
      "outputs": [
        {
          "internalType": "address",
          "name": "",
          "type": "address"
        }
      ],
      "stateMutability": "view",
      "type": "function"
    },
    {
      "inputs": [
        {
          "internalType": "bytes32",
          "name": "paperId",
          "type": "bytes32"
        },
        {
          "internalType": "address",
          "name": "author",
          "type": "address"
        }
      ],
      "name": "hasAcknowledgedDecision",
      "outputs": [
        {
          "internalType": "bool",
          "name": "",
          "type": "bool"
        }
      ],
      "stateMutability": "view",
      "type": "function"
    },
    {
      "inputs": [
        {
          "internalType": "bytes32",
          "name": "paperId",
          "type": "bytes32"
        }
      ],
      "name": "isPublished",
      "outputs": [
        {
          "internalType": "bool",
          "name": "",
          "type": "bool"
        }
      ],
      "stateMutability": "view",
      "type": "function"
    },
    {
      "inputs": [],
      "name": "owner",
      "outputs": [
        {
          "internalType": "address",
          "name": "",
          "type": "address"
        }
      ],
      "stateMutability": "view",
      "type": "function"
    },
    {
      "inputs": [
        {
          "internalType": "bytes32",
          "name": "paperId",
          "type": "bytes32"
        }
      ],
      "name": "paperExists",
      "outputs": [
        {
          "internalType": "bool",
          "name": "",
          "type": "bool"
        }
      ],
      "stateMutability": "view",
      "type": "function"
    },
    {
      "inputs": [
        {
          "internalType": "bytes32",
          "name": "paperId",
          "type": "bytes32"
        },
        {
          "internalType": "string",
          "name": "doi",
          "type": "string"
        },
        {
          "internalType": "string",
          "name": "publicationMetadataCid",
          "type": "string"
        }
      ],
      "name": "publishPaper",
      "outputs": [],
      "stateMutability": "nonpayable",
      "type": "function"
    },
    {
      "inputs": [
        {
          "internalType": "bytes32",
          "name": "paperId",
          "type": "bytes32"
        },
        {
          "internalType": "uint8",
          "name": "decision",
          "type": "uint8"
        }
      ],
      "name": "recordReviewDecision",
      "outputs": [],
      "stateMutability": "nonpayable",
      "type": "function"
    },
    {
      "inputs": [],
      "name": "reviewManager",
      "outputs": [
        {
          "internalType": "address",
          "name": "",
          "type": "address"
        }
      ],
      "stateMutability": "view",
      "type": "function"
    },
    {
      "inputs": [
        {
          "internalType": "address",
          "name": "editor",
          "type": "address"
        },
        {
          "internalType": "bool",
          "name": "allowed",
          "type": "bool"
        }
      ],
      "name": "setEditor",
      "outputs": [],
      "stateMutability": "nonpayable",
      "type": "function"
    },
    {
      "inputs": [
        {
          "internalType": "address",
          "name": "nextReviewManager",
          "type": "address"
        }
      ],
      "name": "setReviewManager",
      "outputs": [],
      "stateMutability": "nonpayable",
      "type": "function"
    },
    {
      "inputs": [
        {
          "internalType": "bytes32",
          "name": "paperId",
          "type": "bytes32"
        },
        {
          "internalType": "string",
          "name": "title",
          "type": "string"
        },
        {
          "internalType": "string",
          "name": "category",
          "type": "string"
        },
        {
          "internalType": "string",
          "name": "abstractCid",
          "type": "string"
        },
        {
          "internalType": "string",
          "name": "submissionMetadataCid",
          "type": "string"
        }
      ],
      "name": "submitPaper",
      "outputs": [],
      "stateMutability": "nonpayable",
      "type": "function"
    },
    {
      "inputs": [
        {
          "internalType": "address",
          "name": "newOwner",
          "type": "address"
        }
      ],
      "name": "transferOwnership",
      "outputs": [],
      "stateMutability": "nonpayable",
      "type": "function"
    },
    {
      "inputs": [
        {
          "internalType": "bytes32",
          "name": "paperId",
          "type": "bytes32"
        },
        {
          "internalType": "string",
          "name": "abstractCid",
          "type": "string"
        },
        {
          "internalType": "string",
          "name": "submissionMetadataCid",
          "type": "string"
        }
      ],
      "name": "updateSubmission",
      "outputs": [],
      "stateMutability": "nonpayable",
      "type": "function"
    }
  ],
  "bytecode": "0x6080604052348015600e575f5ffd5b50604051611a3d380380611a3d833981016040819052602b91609f565b806001600160a01b03811660525760405163d92e233d60e01b815260040160405180910390fd5b5f80546001600160a01b0319166001600160a01b03831690811782556040519091907f8be0079c531659141344cd1fd0a4f28419497f9722a3daafe3b4186f6b6457e0908290a3505060ca565b5f6020828403121560ae575f5ffd5b81516001600160a01b038116811460c3575f5ffd5b9392505050565b611966806100d75f395ff3fe608060405234801561000f575f5ffd5b5060043610610111575f3560e01c80638b4835ba1161009e578063c58425ae1161006e578063c58425ae14610288578063c9b815831461029b578063cd52844d146102ae578063e144b4ad146102d0578063f2fde38b146102e3575f5ffd5b80638b4835ba146102235780638da5cb5b14610236578063a714be2814610248578063a761cd171461025b575f5ffd5b80635f7bb03a116100e45780635f7bb03a14610199578063697cf367146101ca5780636e67b89d146101ea5780637a94064a146101fd5780638b310b4714610210575f5ffd5b80630565d12414610115578063062746711461012a578063308faeed14610173578063373a43c314610186575b5f5ffd5b6101286101233660046112ae565b6102f6565b005b6101566101383660046112ae565b5f90815260016020819052604090912001546001600160a01b031690565b6040516001600160a01b0390911681526020015b60405180910390f35b6101286101813660046112db565b610424565b610128610194366004611314565b6104cc565b6101ba6101a73660046112ae565b5f90815260016020526040902054151590565b604051901515815260200161016a565b6101dd6101d83660046112ae565b61064a565b60405161016a919061139e565b6101286101f83660046112ae565b610a3e565b6101ba61020b3660046112ae565b610ac8565b61012861021e36600461150d565b610afe565b61012861023136600461150d565b610c98565b5f54610156906001600160a01b031681565b6101ba610256366004611584565b610d67565b6101ba610269366004611584565b600460209081525f928352604080842090915290825290205460ff1681565b6101286102963660046115ae565b610d93565b600354610156906001600160a01b031681565b6101ba6102bc366004611683565b60026020525f908152604090205460ff1681565b6101286102de366004611683565b6110c3565b6101286102f1366004611683565b61115d565b6003546001600160a01b03163314610320576040516282b42960e81b815260040160405180910390fd5b5f61032a826111fd565b905060016008820154600160801b900460ff16600781111561034e5761034e61136a565b1415801561037c575060036008820154600160801b900460ff1660078111156103795761037961136a565b14155b80156103a8575060076008820154600160801b900460ff1660078111156103a5576103a561136a565b14155b156103c6576040516307a92f1960e51b815260040160405180910390fd5b60088101805460ff60801b1916600160811b179081905560405183917ffa00a881b7c27f32deffe740d93f0aa7a2709a4a7a81910fe655cb4bfbb87cbc9161041891600160801b900460ff16906116a3565b60405180910390a25050565b5f546001600160a01b0316331461044e576040516330cd747160e01b815260040160405180910390fd5b6001600160a01b0382166104755760405163d92e233d60e01b815260040160405180910390fd5b6001600160a01b0382165f81815260026020908152604091829020805460ff191685151590811790915591519182527f9b4b3c949a77e4d5dcc0f4cca09827bd78d7f77863f496095bf8294c11c3b5f09101610418565b6003546001600160a01b031633146104f6576040516282b42960e81b815260040160405180910390fd5b5f610500836111fd565b905060026008820154600160801b900460ff1660078111156105245761052461136a565b14610542576040516307a92f1960e51b815260040160405180910390fd5b8160ff1660010361056f576008810180546004919060ff60801b1916600160801b835b02179055506105fd565b8160ff16600203610596576008810180546005919060ff60801b1916600160801b83610565565b8160ff166003036105bd576008810180546003919060ff60801b1916600160801b83610565565b8160ff166004036105e4576008810180546007919060ff60801b1916600160801b83610565565b6040516307a92f1960e51b815260040160405180910390fd5b600881015460405184917ffa00a881b7c27f32deffe740d93f0aa7a2709a4a7a81910fe655cb4bfbb87cbc9161063d91600160801b900460ff16906116a3565b60405180910390a2505050565b61065261122e565b61065b826111fd565b60408051610160810182528254815260018301546001600160a01b03166020820152600283018054919392840191610692906116b1565b80601f01602080910402602001604051908101604052809291908181526020018280546106be906116b1565b80156107095780601f106106e057610100808354040283529160200191610709565b820191905f5260205f20905b8154815290600101906020018083116106ec57829003601f168201915b50505050508152602001600382018054610722906116b1565b80601f016020809104026020016040519081016040528092919081815260200182805461074e906116b1565b80156107995780601f1061077057610100808354040283529160200191610799565b820191905f5260205f20905b81548152906001019060200180831161077c57829003601f168201915b505050505081526020016004820180546107b2906116b1565b80601f01602080910402602001604051908101604052809291908181526020018280546107de906116b1565b80156108295780601f1061080057610100808354040283529160200191610829565b820191905f5260205f20905b81548152906001019060200180831161080c57829003601f168201915b50505050508152602001600582018054610842906116b1565b80601f016020809104026020016040519081016040528092919081815260200182805461086e906116b1565b80156108b95780601f10610890576101008083540402835291602001916108b9565b820191905f5260205f20905b81548152906001019060200180831161089c57829003601f168201915b505050505081526020016006820180546108d2906116b1565b80601f01602080910402602001604051908101604052809291908181526020018280546108fe906116b1565b80156109495780601f1061092057610100808354040283529160200191610949565b820191905f5260205f20905b81548152906001019060200180831161092c57829003601f168201915b50505050508152602001600782018054610962906116b1565b80601f016020809104026020016040519081016040528092919081815260200182805461098e906116b1565b80156109d95780601f106109b0576101008083540402835291602001916109d9565b820191905f5260205f20905b8154815290600101906020018083116109bc57829003601f168201915b505050918352505060088201546001600160401b038082166020840152600160401b8204166040830152606090910190600160801b900460ff166007811115610a2457610a2461136a565b6007811115610a3557610a3561136a565b90525092915050565b5f610a48826111fd565b60018101549091506001600160a01b03163314610a77576040516282b42960e81b815260040160405180910390fd5b5f828152600460209081526040808320338085529252808320805460ff1916600117905551909184917f222fe8e72f82d93e103455c6ad2bcdd03814e8966b2e6390c2ab84c7dfd595459190a35050565b5f60065f83815260016020526040902060080154600160801b900460ff166007811115610af757610af761136a565b1492915050565b5f610b08866111fd565b905060046008820154600160801b900460ff166007811115610b2c57610b2c61136a565b14610b4a576040516307a92f1960e51b815260040160405180910390fd5b60018101546001600160a01b03163314801590610b7157505f546001600160a01b03163314155b8015610b8c5750335f9081526002602052604090205460ff16155b15610ba9576040516282b42960e81b815260040160405180910390fd5b60088101805460ff60801b1916600360811b17905560078101610bcd858783611749565b5060068101610bdd838583611749565b506008810180546fffffffffffffffff00000000000000001916600160401b426001600160401b031602179055604051339087907fb1ac0fc7c16f527224a7c5758988cbbf263a51deff30cbe78adc1531729d4af690610c40908990899061182a565b60405180910390a3600881015460405187917ffa00a881b7c27f32deffe740d93f0aa7a2709a4a7a81910fe655cb4bfbb87cbc91610c8891600160801b900460ff16906116a3565b60405180910390a2505050505050565b5f610ca2866111fd565b60018101549091506001600160a01b03163314610cd1576040516282b42960e81b815260040160405180910390fd5b60066008820154600160801b900460ff166007811115610cf357610cf361136a565b03610d11576040516307a92f1960e51b815260040160405180910390fd5b60048101610d20858783611749565b5060058101610d30838583611749565b50857fde3762f2a7aa2c102b74e31c6f43c5cf7749b0acd97d857cb8e742da9ce1475486868686604051610c889493929190611845565b5f8281526004602090815260408083206001600160a01b038516845290915290205460ff165b92915050565b88610db15760405163ecd7b0d160e01b815260040160405180910390fd5b861580610dbc575084155b15610dda5760405163ecd7b0d160e01b815260040160405180910390fd5b5f8981526001602052604090205415610e06576040516344a28d2760e01b815260040160405180910390fd5b6040518061016001604052808a8152602001336001600160a01b0316815260200189898080601f0160208091040260200160405190810160405280939291908181526020018383808284375f92019190915250505090825250604080516020601f8a01819004810282018101909252888152918101919089908990819084018382808284375f92019190915250505090825250604080516020601f8801819004810282018101909252868152918101919087908790819084018382808284375f92019190915250505090825250604080516020601f8601819004810282018101909252848152918101919085908590819084018382808284375f92018290525093855250506040805160208181018352848252808601919091528151908101825283815290840152506001600160401b0342166060830152608082015260a001600190525f8a815260016020818152604092839020845181559084015191810180546001600160a01b0319166001600160a01b0390931692909217909155908201516002820190610f979082611876565b5060608201516003820190610fac9082611876565b5060808201516004820190610fc19082611876565b5060a08201516005820190610fd69082611876565b5060c08201516006820190610feb9082611876565b5060e082015160078201906110009082611876565b506101008201516008820180546101208501516001600160401b03908116600160401b026fffffffffffffffffffffffffffffffff1990921693169290921791909117808255610140840151919060ff60801b1916600160801b83600781111561106c5761106c61136a565b0217905550905050336001600160a01b0316897f0e8e1131c13204e46bec69e9f20c6b676d049f855bcfda5c0f7fa29e5eb078d68a8a6040516110b092919061182a565b60405180910390a3505050505050505050565b5f546001600160a01b031633146110ed576040516330cd747160e01b815260040160405180910390fd5b6001600160a01b0381166111145760405163d92e233d60e01b815260040160405180910390fd5b600380546001600160a01b0319166001600160a01b0383169081179091556040517fe172bdcd963ac84610640aa1c6864cdc8066e1e62ee5933fb33705efeef626c7905f90a250565b5f546001600160a01b03163314611187576040516330cd747160e01b815260040160405180910390fd5b6001600160a01b0381166111ae5760405163d92e233d60e01b815260040160405180910390fd5b5f80546001600160a01b038381166001600160a01b0319831681178455604051919092169283917f8be0079c531659141344cd1fd0a4f28419497f9722a3daafe3b4186f6b6457e09190a35050565b5f818152600160205260409020805461122957604051638cf4530760e01b815260040160405180910390fd5b919050565b6040518061016001604052805f81526020015f6001600160a01b031681526020016060815260200160608152602001606081526020016060815260200160608152602001606081526020015f6001600160401b031681526020015f6001600160401b031681526020015f60078111156112a9576112a961136a565b905290565b5f602082840312156112be575f5ffd5b5035919050565b80356001600160a01b0381168114611229575f5ffd5b5f5f604083850312156112ec575f5ffd5b6112f5836112c5565b915060208301358015158114611309575f5ffd5b809150509250929050565b5f5f60408385031215611325575f5ffd5b82359150602083013560ff81168114611309575f5ffd5b5f81518084528060208401602086015e5f602082860101526020601f19601f83011685010191505092915050565b634e487b7160e01b5f52602160045260245ffd5b6008811061139a57634e487b7160e01b5f52602160045260245ffd5b9052565b60208152815160208201525f60208301516113c460408401826001600160a01b03169052565b50604083015161016060608401526113e061018084018261133c565b90506060840151601f198483030160808501526113fd828261133c565b9150506080840151601f198483030160a085015261141b828261133c565b91505060a0840151601f198483030160c0850152611439828261133c565b91505060c0840151601f198483030160e0850152611457828261133c565b91505060e0840151601f1984830301610100850152611476828261133c565b9150506101008401516114956101208501826001600160401b03169052565b506101208401516001600160401b038116610140850152506101408401516114c161016085018261137e565b509392505050565b5f5f83601f8401126114d9575f5ffd5b5081356001600160401b038111156114ef575f5ffd5b602083019150836020828501011115611506575f5ffd5b9250929050565b5f5f5f5f5f60608688031215611521575f5ffd5b8535945060208601356001600160401b0381111561153d575f5ffd5b611549888289016114c9565b90955093505060408601356001600160401b03811115611567575f5ffd5b611573888289016114c9565b969995985093965092949392505050565b5f5f60408385031215611595575f5ffd5b823591506115a5602084016112c5565b90509250929050565b5f5f5f5f5f5f5f5f5f60a08a8c0312156115c6575f5ffd5b8935985060208a01356001600160401b038111156115e2575f5ffd5b6115ee8c828d016114c9565b90995097505060408a01356001600160401b0381111561160c575f5ffd5b6116188c828d016114c9565b90975095505060608a01356001600160401b03811115611636575f5ffd5b6116428c828d016114c9565b90955093505060808a01356001600160401b03811115611660575f5ffd5b61166c8c828d016114c9565b915080935050809150509295985092959850929598565b5f60208284031215611693575f5ffd5b61169c826112c5565b9392505050565b60208101610d8d828461137e565b600181811c908216806116c557607f821691505b6020821081036116e357634e487b7160e01b5f52602260045260245ffd5b50919050565b634e487b7160e01b5f52604160045260245ffd5b601f82111561174457805f5260205f20601f840160051c810160208510156117225750805b601f840160051c820191505b81811015611741575f815560010161172e565b50505b505050565b6001600160401b03831115611760576117606116e9565b6117748361176e83546116b1565b836116fd565b5f601f8411600181146117a5575f851561178e5750838201355b5f19600387901b1c1916600186901b178355611741565b5f83815260208120601f198716915b828110156117d457868501358255602094850194600190920191016117b4565b50868210156117f0575f1960f88860031b161c19848701351681555b505060018560011b0183555050505050565b81835281816020850137505f828201602090810191909152601f909101601f19169091010190565b602081525f61183d602083018486611802565b949350505050565b604081525f611858604083018688611802565b828103602084015261186b818587611802565b979650505050505050565b81516001600160401b0381111561188f5761188f6116e9565b6118a38161189d84546116b1565b846116fd565b6020601f8211600181146118d5575f83156118be5750848201515b5f19600385901b1c1916600184901b178455611741565b5f84815260208120601f198516915b8281101561190457878501518255602094850194600190920191016118e4565b508482101561192157868401515f19600387901b60f8161c191681555b50505050600190811b0190555056fea2646970667358221220c0c421229e502d63bc4fb802d3fa654fd14e59178762af72015eeb0759dcb46464736f6c634300081c0033",
  "linkReferences": {},
  "deployedLinkReferences": {},
  "immutableReferences": {},
  "inputSourceName": "project/contracts/PaperRegistry.sol",
  "buildInfoId": "solc-0_8_28-7f2f7508331bb31c75e44539beee032644c056f7"
}