{
  "_format": "hh3-artifact-1",
  "contractName": "ReaderInteractions",
  "sourceName": "contracts/ReaderInteractions.sol",
  "abi": [
    {
      "inputs": [
        {
          "internalType": "address",
          "name": "initialOwner",
          "type": "address"
        },
        {
          "internalType": "address",
          "name": "registryAddress",
          "type": "address"
        }
      ],
      "stateMutability": "nonpayable",
      "type": "constructor"
    },
    {
      "inputs": [
        {
          "internalType": "uint64",
          "name": "nextAvailableAt",
          "type": "uint64"
        }
      ],
      "name": "DownloadLimitReached",
      "type": "error"
    },
    {
      "inputs": [],
      "name": "InvalidRating",
      "type": "error"
    },
    {
      "inputs": [],
      "name": "NotOwner",
      "type": "error"
    },
    {
      "inputs": [],
      "name": "PaperNotPublished",
      "type": "error"
    },
    {
      "inputs": [],
      "name": "ZeroAddress",
      "type": "error"
    },
    {
      "anonymous": false,
      "inputs": [
        {
          "indexed": true,
          "internalType": "bytes32",
          "name": "paperId",
          "type": "bytes32"
        },
        {
          "indexed": true,
          "internalType": "address",
          "name": "reader",
          "type": "address"
        },
        {
          "indexed": false,
          "internalType": "bool",
          "name": "saved",
          "type": "bool"
        }
      ],
      "name": "BookmarkUpdated",
      "type": "event"
    },
    {
      "anonymous": false,
      "inputs": [
        {
          "indexed": true,
          "internalType": "bytes32",
          "name": "paperId",
          "type": "bytes32"
        },
        {
          "indexed": true,
          "internalType": "address",
          "name": "reader",
          "type": "address"
        },
        {
          "indexed": false,
          "internalType": "uint64",
          "name": "totalDownloads",
          "type": "uint64"
        },
        {
          "indexed": false,
          "internalType": "uint8",
          "name": "remaining",
          "type": "uint8"
        }
      ],
      "name": "DownloadRegistered",
      "type": "event"
    },
    {
      "anonymous": false,
      "inputs": [
        {
          "indexed": true,
          "internalType": "address",
          "name": "previousOwner",
          "type": "address"
        },
        {
          "indexed": true,
          "internalType": "address",
          "name": "newOwner",
          "type": "address"
        }
      ],
      "name": "OwnershipTransferred",
      "type": "event"
    },
    {
      "anonymous": false,
      "inputs": [
        {
          "indexed": true,
          "internalType": "bytes32",
          "name": "paperId",
          "type": "bytes32"
        },
        {
          "indexed": true,
          "internalType": "address",
          "name": "reader",
          "type": "address"
        },
        {
          "indexed": false,
          "internalType": "uint8",
          "name": "halfSteps",
          "type": "uint8"
        },
        {
          "indexed": false,
          "internalType": "uint32",
          "name": "ratingCount",
          "type": "uint32"
        },
        {
          "indexed": false,
          "internalType": "uint32",
          "name": "ratingTotalHalfSteps",
          "type": "uint32"
        }
      ],
      "name": "RatingSubmitted",
      "type": "event"
    },
    {
      "anonymous": false,
      "inputs": [
        {
          "indexed": true,
          "internalType": "bytes32",
          "name": "paperId",
          "type": "bytes32"
        },
        {
          "indexed": true,
          "internalType": "address",
          "name": "reader",
          "type": "address"
        },
        {
          "indexed": false,
          "internalType": "uint64",
          "name": "totalReads",
          "type": "uint64"
        }
      ],
      "name": "ReadRecorded",
      "type": "event"
    },
    {
      "inputs": [],
      "name": "DOWNLOAD_LIMIT",
      "outputs": [
        {
          "internalType": "uint8",
          "name": "",
          "type": "uint8"
        }
      ],
      "stateMutability": "view",
      "type": "function"
    },
    {
      "inputs": [],
      "name": "DOWNLOAD_WINDOW",
      "outputs": [
        {
          "internalType": "uint64",
          "name": "",
          "type": "uint64"
        }
      ],
      "stateMutability": "view",
      "type": "function"
    },
    {
      "inputs": [
        {
          "internalType": "bytes32",
          "name": "",
          "type": "bytes32"
        },
        {
          "internalType": "address",
          "name": "",
          "type": "address"
        }
      ],
      "name": "bookmarks",
      "outputs": [
        {
          "internalType": "bool",
          "name": "",
          "type": "bool"
        }
      ],
      "stateMutability": "view",
      "type": "function"
    },
    {
      "inputs": [
        {
          "internalType": "bytes32",
          "name": "paperId",
          "type": "bytes32"
        }
      ],
      "name": "getAverageRatingHalfSteps",
      "outputs": [
        {
          "internalType": "uint256",
          "name": "",
          "type": "uint256"
        }
      ],
      "stateMutability": "view",
      "type": "function"
    },
    {
      "inputs": [
        {
          "internalType": "bytes32",
          "name": "paperId",
          "type": "bytes32"
        },
        {
          "internalType": "address",
          "name": "reader",
          "type": "address"
        }
      ],
      "name": "getDownloadPolicy",
      "outputs": [
        {
          "components": [
            {
              "internalType": "bool",
              "name": "allowed",
              "type": "bool"
            },
            {
              "internalType": "uint8",
              "name": "remaining",
              "type": "uint8"
            },
            {
              "internalType": "uint8",
              "name": "recentDownloads",
              "type": "uint8"
            },
            {
              "internalType": "uint64",
              "name": "nextAvailableAt",
              "type": "uint64"
            }
          ],
          "internalType": "struct ReaderInteractions.DownloadPolicy",
          "name": "",
          "type": "tuple"
        }
      ],
      "stateMutability": "view",
      "type": "function"
    },
    {
      "inputs": [
        {
          "internalType": "bytes32",
          "name": "paperId",
          "type": "bytes32"
        }
      ],
      "name": "getPaperStats",
      "outputs": [
        {
          "components": [
            {
              "internalType": "uint64",
              "name": "reads",
              "type": "uint64"
            },
            {
              "internalType": "uint64",
              "name": "downloads",
              "type": "uint64"
            },
            {
              "internalType": "uint32",
              "name": "ratingCount",
              "type": "uint32"
            },
            {
              "internalType": "uint32",
              "name": "ratingTotalHalfSteps",
              "type": "uint32"
            }
          ],
          "internalType": "struct ReaderInteractions.PaperStats",
          "name": "",
          "type": "tuple"
        }
      ],
      "stateMutability": "view",
      "type": "function"
    },
    {
      "inputs": [],
      "name": "owner",
      "outputs": [
        {
          "internalType": "address",
          "name": "",
          "type": "address"
        }
      ],
      "stateMutability": "view",
      "type": "function"
    },
    {
      "inputs": [
        {
          "internalType": "bytes32",
          "name": "paperId",
          "type": "bytes32"
        }
      ],
      "name": "recordRead",
      "outputs": [],
      "stateMutability": "nonpayable",
      "type": "function"
    },
    {
      "inputs": [
        {
          "internalType": "bytes32",
          "name": "paperId",
          "type": "bytes32"
        }
      ],
      "name": "registerDownload",
      "outputs": [],
      "stateMutability": "nonpayable",
      "type": "function"
    },
    {
      "inputs": [],
      "name": "registry",
      "outputs": [
        {
          "internalType": "contract IPaperRegistryPublicationView",
          "name": "",
          "type": "address"
        }
      ],
      "stateMutability": "view",
      "type": "function"
    },
    {
      "inputs": [
        {
          "internalType": "bytes32",
          "name": "paperId",
          "type": "bytes32"
        },
        {
          "internalType": "bool",
          "name": "saved",
          "type": "bool"
        }
      ],
      "name": "setBookmark",
      "outputs": [],
      "stateMutability": "nonpayable",
      "type": "function"
    },
    {
      "inputs": [
        {
          "internalType": "bytes32",
          "name": "paperId",
          "type": "bytes32"
        },
        {
          "internalType": "uint8",
          "name": "halfSteps",
          "type": "uint8"
        }
      ],
      "name": "submitRating",
      "outputs": [],
      "stateMutability": "nonpayable",
      "type": "function"
    },
    {
      "inputs": [
        {
          "internalType": "address",
          "name": "newOwner",
          "type": "address"
        }
      ],
      "name": "transferOwnership",
      "outputs": [],
      "stateMutability": "nonpayable",
      "type": "function"
    },
    {
      "inputs": [
        {
          "internalType": "bytes32",
          "name": "",
          "type": "bytes32"
        },
        {
          "internalType": "address",
          "name": "",
          "type": "address"
        }
      ],
      "name": "userRatings",
      "outputs": [
        {
          "internalType": "uint8",
          "name": "",
          "type": "uint8"
        }
      ],
      "stateMutability": "view",
      "type": "function"
    }
  ],
  "bytecode": "0x60a060405234801561000f575f5ffd5b506040516110b63803806110b683398101604081905261002e916100cb565b816001600160a01b0381166100565760405163d92e233d60e01b815260040160405180910390fd5b5f80546001600160a01b0319166001600160a01b03831690811782556040519091907f8be0079c531659141344cd1fd0a4f28419497f9722a3daafe3b4186f6b6457e0908290a3506001600160a01b0316608052506100fc565b80516001600160a01b03811681146100c6575f5ffd5b919050565b5f5f604083850312156100dc575f5ffd5b6100e5836100b0565b91506100f3602084016100b0565b90509250929050565b608051610f9b61011b5f395f818161023c0152610a840152610f9b5ff3fe608060405234801561000f575f5ffd5b50600436106100e5575f3560e01c80639c47077411610088578063e9d2343411610063578063e9d2343414610345578063f2fde38b14610358578063f74f6e221461036b578063fe63995e1461038c575f5ffd5b80639c4707741461029b578063dfea86d9146102bd578063e5cebc75146102ea575f5ffd5b80636c3faf2d116100c35780636c3faf2d1461021d5780637b103999146102375780637cef5027146102765780638da5cb5b14610289575f5ffd5b80631c253a92146100e95780635a4ad59d146100fe578063655e258614610140575b5f5ffd5b6100fc6100f7366004610d68565b61039f565b005b61012b61010c366004610d9a565b600260209081525f928352604080842090915290825290205460ff1681565b60405190151581526020015b60405180910390f35b6101c861014e366004610d68565b60408051608080820183525f808352602080840182905283850182905260609384018290529481526001855283902083519182018452546001600160401b038082168352600160401b8204169482019490945263ffffffff600160801b8504811693820193909352600160a01b9093049091169082015290565b60405161013791905f6080820190506001600160401b0383511682526001600160401b03602084015116602083015263ffffffff604084015116604083015263ffffffff606084015116606083015292915050565b610225600381565b60405160ff9091168152602001610137565b61025e7f000000000000000000000000000000000000000000000000000000000000000081565b6040516001600160a01b039091168152602001610137565b6100fc610284366004610dc4565b61055a565b5f5461025e906001600160a01b031681565b6102a56201518081565b6040516001600160401b039091168152602001610137565b6102256102cb366004610d9a565b600360209081525f928352604080842090915290825290205460ff1681565b6102fd6102f8366004610d9a565b610724565b60405161013791905f60808201905082511515825260ff602084015116602083015260ff60408401511660408301526001600160401b03606084015116606083015292915050565b6100fc610353366004610e04565b61083d565b6100fc610366366004610e27565b6108a6565b61037e610379366004610d68565b610946565b604051908152602001610137565b6100fc61039a366004610d68565b6109cf565b6103a881610a6e565b5f8181526004602090815260408083203384529091528120906103ca82610b15565b6001830154909150600360ff909116106104065760405163ef1af45f60e01b81526001600160401b038216600482015260240160405180910390fd5b60018201544290839060ff166003811061042257610422610e47565b600491828204019190066008026101000a8154816001600160401b0302191690836001600160401b031602179055506001826001015f8282829054906101000a900460ff166104719190610e6f565b92506101000a81548160ff021916908360ff1602179055506001805f8581526020019081526020015f205f0160088282829054906101000a90046001600160401b03166104be9190610e88565b82546101009290920a6001600160401b038181021990931691831602179091555f858152600160208190526040909120549085015433935086927f099b02208edcd28e0730e84e3940a96000189e45383247822133605001c0911892600160401b900416906105319060ff166003610ea7565b604080516001600160401b03909316835260ff90911660208301520160405180910390a3505050565b61056382610a6e565b60018160ff1610806105785750600a8160ff16115b156105965760405163d29df2dd60e01b815260040160405180910390fd5b5f82815260016020908152604080832060038352818420338552909252822054909160ff9091169081900361064d57815460019083906010906105e7908490600160801b900463ffffffff16610ec0565b92506101000a81548163ffffffff021916908363ffffffff1602179055508260ff16825f0160148282829054906101000a900463ffffffff1661062a9190610ec0565b92506101000a81548163ffffffff021916908363ffffffff160217905550610699565b815460ff8481169161066e91841690600160a01b900463ffffffff16610edc565b6106789190610ec0565b825463ffffffff91909116600160a01b0263ffffffff60a01b199091161782555b5f8481526003602090815260408083203380855290835292819020805460ff191660ff881690811790915585548251918252600160801b810463ffffffff90811694830194909452600160a01b90049092169082015285907f7ee22ba0aa09aa072ee3b215661e4f00e5f704d6a841b2439da593efd570b7ca9060600160405180910390a350505050565b604080516080810182525f808252602080830182905282840182905260608301829052858252600481528382206001600160a01b03861683529052828120835160a0810180865293949293909283919082019083906003908288855b82829054906101000a90046001600160401b03166001600160401b031681526020019060080190602082600701049283019260010382029150808411610780575050509284525050506001919091015460ff1660209091015290505f806107e683610c86565b915091506040518060800160405280600360ff168460ff1610151581526020018360036108139190610ea7565b60ff1681526020018360ff168152602001826001600160401b031681525093505050505b92915050565b61084682610a6e565b5f8281526002602090815260408083203380855290835292819020805460ff1916851515908117909155905190815284917f783bb9773b563247df19159542a2b4fdddd72fa85ef1e80f05d4b863db809df2910160405180910390a35050565b5f546001600160a01b031633146108d0576040516330cd747160e01b815260040160405180910390fd5b6001600160a01b0381166108f75760405163d92e233d60e01b815260040160405180910390fd5b5f80546001600160a01b038381166001600160a01b0319831681178455604051919092169283917f8be0079c531659141344cd1fd0a4f28419497f9722a3daafe3b4186f6b6457e09190a35050565b5f818152600160209081526040808320815160808101835290546001600160401b038082168352600160401b8204169382019390935263ffffffff600160801b84048116928201839052600160a01b909304909216606083015282036109ae57505f92915050565b806040015181606001516109c29190610ef8565b63ffffffff169392505050565b6109d881610a6e565b5f8181526001602081905260408220805491929091610a019084906001600160401b0316610e88565b82546101009290920a6001600160401b038181021990931691831602179091555f8381526001602090815260409182902054915191909216815233925083917fd5f128f2e3ece854150d1f4055186b14d11811eca48192ab537295e5fdc7b139910160405180910390a350565b604051633d4a032560e11b8152600481018290527f00000000000000000000000000000000000000000000000000000000000000006001600160a01b031690637a94064a90602401602060405180830381865afa158015610ad1573d5f5f3e3d5ffd5b505050506040513d601f19601f82011682018060405250810190610af59190610f2b565b610b125760405163056b956360e11b815260040160405180910390fd5b50565b5f610b1e610d4a565b5f80610b2d6201518042610f46565b90505f5b600186015460ff9081169082161015610bd5575f8660ff831660038110610b5a57610b5a610e47565b600491828204019190066008029054906101000a90046001600160401b03169050826001600160401b0316816001600160401b03161115610bcc5780858560ff1660038110610bab57610bab610e47565b6001600160401b039092166020929092020152610bc9600185610e6f565b93505b50600101610b31565b505f5b600360ff82161015610c4f57838160ff1660038110610bf957610bf9610e47565b60200201518660ff831660038110610c1357610c13610e47565b600491828204019190066008026101000a8154816001600160401b0302191690836001600160401b031602179055508080600101915050610bd8565b5060018501805460ff191660ff8416908117909155600311610c7e578251610c7b906201518090610e88565b93505b505050919050565b5f8080610c966201518042610f46565b90505f805b856020015160ff168160ff161015610d275785515f9060ff831660038110610cc557610cc5610e47565b60200201519050836001600160401b0316816001600160401b03161115610d1e5760ff86161580610d075750826001600160401b0316816001600160401b0316105b15610d10578092505b610d1b600187610e6f565b95505b50600101610c9b565b50600360ff851610610d4357610d406201518082610e88565b92505b5050915091565b60405180606001604052806003906020820280368337509192915050565b5f60208284031215610d78575f5ffd5b5035919050565b80356001600160a01b0381168114610d95575f5ffd5b919050565b5f5f60408385031215610dab575f5ffd5b82359150610dbb60208401610d7f565b90509250929050565b5f5f60408385031215610dd5575f5ffd5b82359150602083013560ff81168114610dec575f5ffd5b809150509250929050565b8015158114610b12575f5ffd5b5f5f60408385031215610e15575f5ffd5b823591506020830135610dec81610df7565b5f60208284031215610e37575f5ffd5b610e4082610d7f565b9392505050565b634e487b7160e01b5f52603260045260245ffd5b634e487b7160e01b5f52601160045260245ffd5b60ff818116838216019081111561083757610837610e5b565b6001600160401b03818116838216019081111561083757610837610e5b565b60ff828116828216039081111561083757610837610e5b565b63ffffffff818116838216019081111561083757610837610e5b565b63ffffffff828116828216039081111561083757610837610e5b565b5f63ffffffff831680610f1957634e487b7160e01b5f52601260045260245ffd5b8063ffffffff84160491505092915050565b5f60208284031215610f3b575f5ffd5b8151610e4081610df7565b6001600160401b03828116828216039081111561083757610837610e5b56fea2646970667358221220ec11a5eb02788c747dbc6c3dfe9f60f38f5a37b4f205ce762c2800ff9fb9ff1b64736f6c634300081c0033",
  "linkReferences": {},
  "deployedLinkReferences": {},
  "immutableReferences": {
    "132": [
      {
        "length": 32,
        "start": 572
      },
      {
        "length": 32,
        "start": 2692
      }
    ]
  },
  "inputSourceName": "project/contracts/ReaderInteractions.sol",
  "buildInfoId": "solc-0_8_28-095927c83062aaf386750db381106c78cb3b5b77"
}