{
  "_format": "hh3-artifact-1",
  "contractName": "DSTProtocolVault",
  "sourceName": "contracts/DSTProtocolVault.sol",
  "abi": [
    {
      "inputs": [
        {
          "internalType": "address",
          "name": "initialOwner",
          "type": "address"
        },
        {
          "internalType": "address",
          "name": "tokenAddress",
          "type": "address"
        }
      ],
      "stateMutability": "nonpayable",
      "type": "constructor"
    },
    {
      "inputs": [],
      "name": "InsufficientRewardPool",
      "type": "error"
    },
    {
      "inputs": [],
      "name": "InvalidAmount",
      "type": "error"
    },
    {
      "inputs": [],
      "name": "InvalidSettlement",
      "type": "error"
    },
    {
      "inputs": [],
      "name": "NotOwner",
      "type": "error"
    },
    {
      "inputs": [],
      "name": "StakeAlreadyLocked",
      "type": "error"
    },
    {
      "inputs": [],
      "name": "StakeMissing",
      "type": "error"
    },
    {
      "inputs": [],
      "name": "TransferFailed",
      "type": "error"
    },
    {
      "inputs": [],
      "name": "Unauthorized",
      "type": "error"
    },
    {
      "inputs": [],
      "name": "ZeroAddress",
      "type": "error"
    },
    {
      "anonymous": false,
      "inputs": [
        {
          "indexed": true,
          "internalType": "address",
          "name": "coordinator",
          "type": "address"
        },
        {
          "indexed": false,
          "internalType": "bool",
          "name": "allowed",
          "type": "bool"
        }
      ],
      "name": "CoordinatorUpdated",
      "type": "event"
    },
    {
      "anonymous": false,
      "inputs": [
        {
          "indexed": true,
          "internalType": "address",
          "name": "receiver",
          "type": "address"
        },
        {
          "indexed": false,
          "internalType": "uint256",
          "name": "amount",
          "type": "uint256"
        }
      ],
      "name": "FeeVaultWithdrawal",
      "type": "event"
    },
    {
      "anonymous": false,
      "inputs": [
        {
          "indexed": true,
          "internalType": "address",
          "name": "previousOwner",
          "type": "address"
        },
        {
          "indexed": true,
          "internalType": "address",
          "name": "newOwner",
          "type": "address"
        }
      ],
      "name": "OwnershipTransferred",
      "type": "event"
    },
    {
      "anonymous": false,
      "inputs": [
        {
          "indexed": true,
          "internalType": "bytes32",
          "name": "paperId",
          "type": "bytes32"
        },
        {
          "indexed": true,
          "internalType": "address",
          "name": "author",
          "type": "address"
        },
        {
          "indexed": false,
          "internalType": "uint256",
          "name": "totalAmount",
          "type": "uint256"
        },
        {
          "indexed": false,
          "internalType": "uint256",
          "name": "rewardPoolAmount",
          "type": "uint256"
        }
      ],
      "name": "PriorityFeeReserved",
      "type": "event"
    },
    {
      "anonymous": false,
      "inputs": [
        {
          "indexed": true,
          "internalType": "bytes32",
          "name": "paperId",
          "type": "bytes32"
        },
        {
          "indexed": true,
          "internalType": "address",
          "name": "reviewer",
          "type": "address"
        },
        {
          "indexed": false,
          "internalType": "uint256",
          "name": "rewardAmount",
          "type": "uint256"
        },
        {
          "indexed": false,
          "internalType": "uint256",
          "name": "slashedAmount",
          "type": "uint256"
        },
        {
          "indexed": false,
          "internalType": "uint256",
          "name": "refundedStake",
          "type": "uint256"
        }
      ],
      "name": "ReviewerSettled",
      "type": "event"
    },
    {
      "anonymous": false,
      "inputs": [
        {
          "indexed": true,
          "internalType": "bytes32",
          "name": "paperId",
          "type": "bytes32"
        },
        {
          "indexed": true,
          "internalType": "address",
          "name": "reviewer",
          "type": "address"
        },
        {
          "indexed": false,
          "internalType": "uint256",
          "name": "amount",
          "type": "uint256"
        }
      ],
      "name": "ReviewerStakeLocked",
      "type": "event"
    },
    {
      "anonymous": false,
      "inputs": [
        {
          "indexed": true,
          "internalType": "bytes32",
          "name": "paperId",
          "type": "bytes32"
        },
        {
          "indexed": true,
          "internalType": "address",
          "name": "author",
          "type": "address"
        },
        {
          "indexed": false,
          "internalType": "uint256",
          "name": "totalAmount",
          "type": "uint256"
        },
        {
          "indexed": false,
          "internalType": "uint256",
          "name": "rewardPoolAmount",
          "type": "uint256"
        },
        {
          "indexed": false,
          "internalType": "uint256",
          "name": "feeVaultAmount",
          "type": "uint256"
        }
      ],
      "name": "SubmissionFeeReserved",
      "type": "event"
    },
    {
      "inputs": [],
      "name": "BASIS_POINTS",
      "outputs": [
        {
          "internalType": "uint256",
          "name": "",
          "type": "uint256"
        }
      ],
      "stateMutability": "view",
      "type": "function"
    },
    {
      "inputs": [],
      "name": "DEFAULT_REWARD_POOL_SHARE_BPS",
      "outputs": [
        {
          "internalType": "uint256",
          "name": "",
          "type": "uint256"
        }
      ],
      "stateMutability": "view",
      "type": "function"
    },
    {
      "inputs": [
        {
          "internalType": "address",
          "name": "",
          "type": "address"
        }
      ],
      "name": "coordinators",
      "outputs": [
        {
          "internalType": "bool",
          "name": "",
          "type": "bool"
        }
      ],
      "stateMutability": "view",
      "type": "function"
    },
    {
      "inputs": [],
      "name": "dstToken",
      "outputs": [
        {
          "internalType": "contract DSTToken",
          "name": "",
          "type": "address"
        }
      ],
      "stateMutability": "view",
      "type": "function"
    },
    {
      "inputs": [],
      "name": "feeVaultBalance",
      "outputs": [
        {
          "internalType": "uint256",
          "name": "",
          "type": "uint256"
        }
      ],
      "stateMutability": "view",
      "type": "function"
    },
    {
      "inputs": [
        {
          "internalType": "bytes32",
          "name": "paperId",
          "type": "bytes32"
        }
      ],
      "name": "getPaperFunding",
      "outputs": [
        {
          "components": [
            {
              "internalType": "uint256",
              "name": "totalSubmitted",
              "type": "uint256"
            },
            {
              "internalType": "uint256",
              "name": "priorityFeesSubmitted",
              "type": "uint256"
            },
            {
              "internalType": "uint256",
              "name": "rewardPoolRemaining",
              "type": "uint256"
            },
            {
              "internalType": "uint256",
              "name": "feeVaultAccrued",
              "type": "uint256"
            }
          ],
          "internalType": "struct DSTProtocolVault.PaperFunding",
          "name": "",
          "type": "tuple"
        }
      ],
      "stateMutability": "view",
      "type": "function"
    },
    {
      "inputs": [
        {
          "internalType": "bytes32",
          "name": "paperId",
          "type": "bytes32"
        },
        {
          "internalType": "address",
          "name": "reviewer",
          "type": "address"
        }
      ],
      "name": "getReviewerStake",
      "outputs": [
        {
          "components": [
            {
              "internalType": "uint256",
              "name": "amount",
              "type": "uint256"
            },
            {
              "internalType": "bool",
              "name": "active",
              "type": "bool"
            }
          ],
          "internalType": "struct DSTProtocolVault.ReviewerStake",
          "name": "",
          "type": "tuple"
        }
      ],
      "stateMutability": "view",
      "type": "function"
    },
    {
      "inputs": [
        {
          "internalType": "bytes32",
          "name": "paperId",
          "type": "bytes32"
        },
        {
          "internalType": "uint256",
          "name": "amount",
          "type": "uint256"
        }
      ],
      "name": "lockReviewerStake",
      "outputs": [],
      "stateMutability": "nonpayable",
      "type": "function"
    },
    {
      "inputs": [],
      "name": "owner",
      "outputs": [
        {
          "internalType": "address",
          "name": "",
          "type": "address"
        }
      ],
      "stateMutability": "view",
      "type": "function"
    },
    {
      "inputs": [
        {
          "internalType": "address",
          "name": "receiver",
          "type": "address"
        },
        {
          "internalType": "uint256",
          "name": "amount",
          "type": "uint256"
        }
      ],
      "name": "ownerWithdrawFeeVault",
      "outputs": [],
      "stateMutability": "nonpayable",
      "type": "function"
    },
    {
      "inputs": [
        {
          "internalType": "bytes32",
          "name": "paperId",
          "type": "bytes32"
        },
        {
          "internalType": "uint256",
          "name": "totalAmount",
          "type": "uint256"
        }
      ],
      "name": "reservePriorityFee",
      "outputs": [],
      "stateMutability": "nonpayable",
      "type": "function"
    },
    {
      "inputs": [
        {
          "internalType": "bytes32",
          "name": "paperId",
          "type": "bytes32"
        },
        {
          "internalType": "uint256",
          "name": "totalAmount",
          "type": "uint256"
        }
      ],
      "name": "reserveSubmissionFee",
      "outputs": [],
      "stateMutability": "nonpayable",
      "type": "function"
    },
    {
      "inputs": [
        {
          "internalType": "address",
          "name": "coordinator",
          "type": "address"
        },
        {
          "internalType": "bool",
          "name": "allowed",
          "type": "bool"
        }
      ],
      "name": "setCoordinator",
      "outputs": [],
      "stateMutability": "nonpayable",
      "type": "function"
    },
    {
      "inputs": [
        {
          "internalType": "bytes32",
          "name": "paperId",
          "type": "bytes32"
        },
        {
          "internalType": "address",
          "name": "reviewer",
          "type": "address"
        },
        {
          "internalType": "uint256",
          "name": "rewardAmount",
          "type": "uint256"
        },
        {
          "internalType": "uint256",
          "name": "slashedAmount",
          "type": "uint256"
        }
      ],
      "name": "settleReviewer",
      "outputs": [],
      "stateMutability": "nonpayable",
      "type": "function"
    },
    {
      "inputs": [
        {
          "internalType": "address",
          "name": "newOwner",
          "type": "address"
        }
      ],
      "name": "transferOwnership",
      "outputs": [],
      "stateMutability": "nonpayable",
      "type": "function"
    }
  ],
  "bytecode": "0x60a060405234801561000f575f5ffd5b506040516111c13803806111c183398101604081905261002e916100f2565b816001600160a01b0381166100565760405163d92e233d60e01b815260040160405180910390fd5b5f80546001600160a01b0319166001600160a01b03831690811782556040519091907f8be0079c531659141344cd1fd0a4f28419497f9722a3daafe3b4186f6b6457e0908290a3506001600160a01b0381166100c55760405163d92e233d60e01b815260040160405180910390fd5b6001600160a01b031660805250610123565b80516001600160a01b03811681146100ed575f5ffd5b919050565b5f5f60408385031215610103575f5ffd5b61010c836100d7565b915061011a602084016100d7565b90509250929050565b60805161105c6101655f395f8181610255015281816104740152818161052e015281816106c2015281816108b301528181610b6b0152610d56015261105c5ff3fe608060405234801561000f575f5ffd5b50600436106100f0575f3560e01c80638da5cb5b11610093578063d08648fd11610063578063d08648fd14610250578063e1f1c4a714610277578063f2fde38b14610280578063f32d01b314610293575f5ffd5b80638da5cb5b146101ce578063a48af096146101f8578063a65290901461022a578063ca7945241461023d575f5ffd5b8063328c0c94116100ce578063328c0c941461016f5780634a8bf283146101785780636d01099a1461018b5780638c368526146101bb575f5ffd5b806314bd9906146100f45780631ef4d471146101095780632592aeec14610158575b5f5ffd5b610107610102366004610e75565b6102a6565b005b61011c610117366004610ead565b61060f565b60405161014f91908151815260208083015190820152604080830151908201526060918201519181019190915260800190565b60405180910390f35b610161611d4c81565b60405190815260200161014f565b61016160045481565b610107610186366004610ec4565b610677565b61019e610199366004610ee4565b6107ee565b60408051825181526020928301511515928101929092520161014f565b6101076101c9366004610ec4565b61083e565b5f546101e0906001600160a01b031681565b6040516001600160a01b03909116815260200161014f565b61021a610206366004610f0e565b60016020525f908152604090205460ff1681565b604051901515815260200161014f565b610107610238366004610f3e565b610a00565b61010761024b366004610f73565b610ab0565b6101e07f000000000000000000000000000000000000000000000000000000000000000081565b61016161271081565b61010761028e366004610f0e565b610c2d565b6101076102a1366004610ec4565b610ccd565b5f546001600160a01b031633148015906102cf5750335f9081526001602052604090205460ff16155b156102ec576040516282b42960e81b815260040160405180910390fd5b83158061030057506001600160a01b038316155b1561031e5760405163162908e360e11b815260040160405180910390fd5b5f8481526003602090815260408083206001600160a01b03871684529091529020600181015460ff1661036457604051635290262960e01b815260040160405180910390fd5b8054821115610386576040516304564c7160e21b815260040160405180910390fd5b5f858152600260208190526040909120908101548411156103ba57604051633270436b60e01b815260040160405180910390fd5b83816002015f8282546103cd9190610faf565b9250508190555082816003015f8282546103e79190610fc2565b925050819055508260045f8282546103ff9190610fc2565b909155505081545f90610413908590610faf565b5f8881526003602090815260408083206001600160a01b038b1684529091528120908155600101805460ff19169055905084158015906104e0575060405163a9059cbb60e01b81526001600160a01b038781166004830152602482018790527f0000000000000000000000000000000000000000000000000000000000000000169063a9059cbb906044016020604051808303815f875af11580156104ba573d5f5f3e3d5ffd5b505050506040513d601f19601f820116820180604052508101906104de9190610fd5565b155b156104fe576040516312171d8360e31b815260040160405180910390fd5b5f8111801561059a575060405163a9059cbb60e01b81526001600160a01b038781166004830152602482018390527f0000000000000000000000000000000000000000000000000000000000000000169063a9059cbb906044016020604051808303815f875af1158015610574573d5f5f3e3d5ffd5b505050506040513d601f19601f820116820180604052508101906105989190610fd5565b155b156105b8576040516312171d8360e31b815260040160405180910390fd5b60408051868152602081018690529081018290526001600160a01b0387169088907f03c91c7c228e0305d4c07d5dfc816f32ee1a9041127066e3efedbd83f2e81c8c9060600160405180910390a350505050505050565b61063660405180608001604052805f81526020015f81526020015f81526020015f81525090565b505f90815260026020818152604092839020835160808101855281548152600182015492810192909252918201549281019290925260030154606082015290565b811580610682575080155b156106a05760405163162908e360e11b815260040160405180910390fd5b6040516323b872dd60e01b8152336004820152306024820152604481018290527f00000000000000000000000000000000000000000000000000000000000000006001600160a01b0316906323b872dd906064016020604051808303815f875af1158015610710573d5f5f3e3d5ffd5b505050506040513d601f19601f820116820180604052508101906107349190610fd5565b610751576040516312171d8360e31b815260040160405180910390fd5b5f828152600260205260408120805490918391839190610772908490610fc2565b9250508190555081816001015f82825461078c9190610fc2565b9250508190555081816002015f8282546107a69190610fc2565b90915550506040805183815260208101849052339185917f9da0f3f50d4a1f96347fce475e4825f31d67a9d7885f09e9e23ef1f88fe74df591015b60405180910390a3505050565b6040805180820182525f8082526020918201819052848152600382528281206001600160a01b038516825282528290208251808401909352805483526001015460ff161515908201525b92915050565b811580610849575080155b156108675760405163162908e360e11b815260040160405180910390fd5b5f612710610877611d4c84610ff0565b6108819190611007565b90505f61088e8284610faf565b6040516323b872dd60e01b8152336004820152306024820152604481018590529091507f00000000000000000000000000000000000000000000000000000000000000006001600160a01b0316906323b872dd906064016020604051808303815f875af1158015610901573d5f5f3e3d5ffd5b505050506040513d601f19601f820116820180604052508101906109259190610fd5565b610942576040516312171d8360e31b815260040160405180910390fd5b5f848152600260205260408120805490918591839190610963908490610fc2565b9250508190555082816002015f82825461097d9190610fc2565b9250508190555081816003015f8282546109979190610fc2565b925050819055508160045f8282546109af9190610fc2565b90915550506040805185815260208101859052908101839052339086907f6f7e69c4d37d0cd63928b727b67b45e513a91f84d9ee1d5e3134a93c748e289c9060600160405180910390a35050505050565b5f546001600160a01b03163314610a2a576040516330cd747160e01b815260040160405180910390fd5b6001600160a01b038216610a515760405163d92e233d60e01b815260040160405180910390fd5b6001600160a01b0382165f81815260016020908152604091829020805460ff191685151590811790915591519182527fdce074bfc7e53c233c35e7374a69b8669a86fd5111c2f81c2ba3a0613b7cd1ef91015b60405180910390a25050565b5f546001600160a01b03163314610ada576040516330cd747160e01b815260040160405180910390fd5b6001600160a01b0382161580610aee575080155b15610b0c5760405163162908e360e11b815260040160405180910390fd5b600454811115610b2f576040516304564c7160e21b815260040160405180910390fd5b8060045f828254610b409190610faf565b909155505060405163a9059cbb60e01b81526001600160a01b038381166004830152602482018390527f0000000000000000000000000000000000000000000000000000000000000000169063a9059cbb906044016020604051808303815f875af1158015610bb1573d5f5f3e3d5ffd5b505050506040513d601f19601f82011682018060405250810190610bd59190610fd5565b610bf2576040516312171d8360e31b815260040160405180910390fd5b816001600160a01b03167fcd7d54bd2552efb4f067652810a3de9eebb028dc68d114049e89a465ca691dbf82604051610aa491815260200190565b5f546001600160a01b03163314610c57576040516330cd747160e01b815260040160405180910390fd5b6001600160a01b038116610c7e5760405163d92e233d60e01b815260040160405180910390fd5b5f80546001600160a01b038381166001600160a01b0319831681178455604051919092169283917f8be0079c531659141344cd1fd0a4f28419497f9722a3daafe3b4186f6b6457e09190a35050565b811580610cd8575080155b15610cf65760405163162908e360e11b815260040160405180910390fd5b5f8281526003602090815260408083203384529091529020600181015460ff1615610d3457604051635b8e50a560e11b815260040160405180910390fd5b6040516323b872dd60e01b8152336004820152306024820152604481018390527f00000000000000000000000000000000000000000000000000000000000000006001600160a01b0316906323b872dd906064016020604051808303815f875af1158015610da4573d5f5f3e3d5ffd5b505050506040513d601f19601f82011682018060405250810190610dc89190610fd5565b610de5576040516312171d8360e31b815260040160405180910390fd5b604080518082018252838152600160208083018281525f88815260038352858120338083529084529086902094518555905193909201805460ff191693151593909317909255915184815285917fb7f81583a295fabc1a821a1f9fd77cf4828051826c4eda43fb2e07802b31fa2191016107e1565b80356001600160a01b0381168114610e70575f5ffd5b919050565b5f5f5f5f60808587031215610e88575f5ffd5b84359350610e9860208601610e5a565b93969395505050506040820135916060013590565b5f60208284031215610ebd575f5ffd5b5035919050565b5f5f60408385031215610ed5575f5ffd5b50508035926020909101359150565b5f5f60408385031215610ef5575f5ffd5b82359150610f0560208401610e5a565b90509250929050565b5f60208284031215610f1e575f5ffd5b610f2782610e5a565b9392505050565b8015158114610f3b575f5ffd5b50565b5f5f60408385031215610f4f575f5ffd5b610f5883610e5a565b91506020830135610f6881610f2e565b809150509250929050565b5f5f60408385031215610f84575f5ffd5b610f8d83610e5a565b946020939093013593505050565b634e487b7160e01b5f52601160045260245ffd5b8181038181111561083857610838610f9b565b8082018082111561083857610838610f9b565b5f60208284031215610fe5575f5ffd5b8151610f2781610f2e565b808202811582820484141761083857610838610f9b565b5f8261102157634e487b7160e01b5f52601260045260245ffd5b50049056fea26469706673582212209fdb6a8ef7e9f00b1fbb238d6418767b90f182f52437c32fcfd54d4c60226fac64736f6c634300081c0033",
  "linkReferences": {},
  "deployedLinkReferences": {},
  "immutableReferences": {
    "28": [
      {
        "length": 32,
        "start": 597
      },
      {
        "length": 32,
        "start": 1140
      },
      {
        "length": 32,
        "start": 1326
      },
      {
        "length": 32,
        "start": 1730
      },
      {
        "length": 32,
        "start": 2227
      },
      {
        "length": 32,
        "start": 2923
      },
      {
        "length": 32,
        "start": 3414
      }
    ]
  },
  "inputSourceName": "project/contracts/DSTProtocolVault.sol",
  "buildInfoId": "solc-0_8_28-04efc8ed91e86ef63157a7a97bf2d09e633f9c6f"
}