{
  "_format": "hh3-artifact-1",
  "contractName": "DSTTreasury",
  "sourceName": "contracts/DSTTreasury.sol",
  "abi": [
    {
      "inputs": [
        {
          "internalType": "address",
          "name": "initialOwner",
          "type": "address"
        },
        {
          "internalType": "address",
          "name": "tokenAddress",
          "type": "address"
        },
        {
          "internalType": "uint256",
          "name": "priceWeiPerToken",
          "type": "uint256"
        }
      ],
      "stateMutability": "nonpayable",
      "type": "constructor"
    },
    {
      "inputs": [],
      "name": "EthTransferFailed",
      "type": "error"
    },
    {
      "inputs": [],
      "name": "InsufficientLiquidity",
      "type": "error"
    },
    {
      "inputs": [],
      "name": "InvalidAmount",
      "type": "error"
    },
    {
      "inputs": [],
      "name": "InvalidPayment",
      "type": "error"
    },
    {
      "inputs": [],
      "name": "NotOwner",
      "type": "error"
    },
    {
      "inputs": [],
      "name": "ZeroAddress",
      "type": "error"
    },
    {
      "anonymous": false,
      "inputs": [
        {
          "indexed": true,
          "internalType": "address",
          "name": "previousOwner",
          "type": "address"
        },
        {
          "indexed": true,
          "internalType": "address",
          "name": "newOwner",
          "type": "address"
        }
      ],
      "name": "OwnershipTransferred",
      "type": "event"
    },
    {
      "anonymous": false,
      "inputs": [
        {
          "indexed": true,
          "internalType": "address",
          "name": "buyer",
          "type": "address"
        },
        {
          "indexed": false,
          "internalType": "uint256",
          "name": "tokenAmount",
          "type": "uint256"
        },
        {
          "indexed": false,
          "internalType": "uint256",
          "name": "ethPaid",
          "type": "uint256"
        }
      ],
      "name": "TokensPurchased",
      "type": "event"
    },
    {
      "anonymous": false,
      "inputs": [
        {
          "indexed": true,
          "internalType": "address",
          "name": "redeemer",
          "type": "address"
        },
        {
          "indexed": false,
          "internalType": "uint256",
          "name": "tokenAmount",
          "type": "uint256"
        },
        {
          "indexed": false,
          "internalType": "uint256",
          "name": "ethReturned",
          "type": "uint256"
        }
      ],
      "name": "TokensRedeemed",
      "type": "event"
    },
    {
      "anonymous": false,
      "inputs": [
        {
          "indexed": true,
          "internalType": "address",
          "name": "funder",
          "type": "address"
        },
        {
          "indexed": false,
          "internalType": "uint256",
          "name": "amountWei",
          "type": "uint256"
        }
      ],
      "name": "TreasuryFunded",
      "type": "event"
    },
    {
      "anonymous": false,
      "inputs": [
        {
          "indexed": true,
          "internalType": "address",
          "name": "receiver",
          "type": "address"
        },
        {
          "indexed": false,
          "internalType": "uint256",
          "name": "amountWei",
          "type": "uint256"
        }
      ],
      "name": "TreasuryWithdrawal",
      "type": "event"
    },
    {
      "inputs": [
        {
          "internalType": "uint256",
          "name": "tokenAmount",
          "type": "uint256"
        }
      ],
      "name": "buy",
      "outputs": [],
      "stateMutability": "payable",
      "type": "function"
    },
    {
      "inputs": [],
      "name": "dstToken",
      "outputs": [
        {
          "internalType": "contract DSTToken",
          "name": "",
          "type": "address"
        }
      ],
      "stateMutability": "view",
      "type": "function"
    },
    {
      "inputs": [],
      "name": "fundTreasury",
      "outputs": [],
      "stateMutability": "payable",
      "type": "function"
    },
    {
      "inputs": [
        {
          "internalType": "uint256",
          "name": "tokenAmount",
          "type": "uint256"
        }
      ],
      "name": "getEthCost",
      "outputs": [
        {
          "internalType": "uint256",
          "name": "",
          "type": "uint256"
        }
      ],
      "stateMutability": "view",
      "type": "function"
    },
    {
      "inputs": [],
      "name": "owner",
      "outputs": [
        {
          "internalType": "address",
          "name": "",
          "type": "address"
        }
      ],
      "stateMutability": "view",
      "type": "function"
    },
    {
      "inputs": [
        {
          "internalType": "address payable",
          "name": "receiver",
          "type": "address"
        },
        {
          "internalType": "uint256",
          "name": "amountWei",
          "type": "uint256"
        }
      ],
      "name": "ownerWithdrawEth",
      "outputs": [],
      "stateMutability": "nonpayable",
      "type": "function"
    },
    {
      "inputs": [
        {
          "internalType": "uint256",
          "name": "tokenAmount",
          "type": "uint256"
        }
      ],
      "name": "redeem",
      "outputs": [],
      "stateMutability": "nonpayable",
      "type": "function"
    },
    {
      "inputs": [
        {
          "internalType": "address",
          "name": "newOwner",
          "type": "address"
        }
      ],
      "name": "transferOwnership",
      "outputs": [],
      "stateMutability": "nonpayable",
      "type": "function"
    },
    {
      "inputs": [],
      "name": "weiPerToken",
      "outputs": [
        {
          "internalType": "uint256",
          "name": "",
          "type": "uint256"
        }
      ],
      "stateMutability": "view",
      "type": "function"
    },
    {
      "stateMutability": "payable",
      "type": "receive"
    }
  ],
  "bytecode": "0x60c060405234801561000f575f5ffd5b50604051610a0c380380610a0c83398101604081905261002e91610117565b826001600160a01b0381166100565760405163d92e233d60e01b815260040160405180910390fd5b5f80546001600160a01b0319166001600160a01b03831690811782556040519091907f8be0079c531659141344cd1fd0a4f28419497f9722a3daafe3b4186f6b6457e0908290a3506001600160a01b0382166100c55760405163d92e233d60e01b815260040160405180910390fd5b805f036100e55760405163162908e360e11b815260040160405180910390fd5b6001600160a01b0390911660805260a05250610150565b80516001600160a01b0381168114610112575f5ffd5b919050565b5f5f5f60608486031215610129575f5ffd5b610132846100fc565b9250610140602085016100fc565b9150604084015190509250925092565b60805160a05161087f61018d5f395f81816101af015261021e01525f81816101690152818161043c0152818161054801526105d1015261087f5ff3fe608060405260043610610087575f3560e01c8063d08648fd11610057578063d08648fd14610158578063d96a094a1461018b578063dab8263a1461019e578063db006a75146101d1578063f2fde38b146101f0575f5ffd5b8063688b39a8146100c75780638da5cb5b146100f9578063938c4a801461012f578063b9c1868514610150575f5ffd5b366100c35760405134815233907fda1785fe1dec267c363b06ae3e02c3e086123f9d611399f7a1cc98492518372e9060200160405180910390a2005b5f5ffd5b3480156100d2575f5ffd5b506100e66100e136600461076e565b61020f565b6040519081526020015b60405180910390f35b348015610104575f5ffd5b505f54610117906001600160a01b031681565b6040516001600160a01b0390911681526020016100f0565b34801561013a575f5ffd5b5061014e61014936600461079c565b610253565b005b61014e61039d565b348015610163575f5ffd5b506101177f000000000000000000000000000000000000000000000000000000000000000081565b61014e61019936600461076e565b6103d4565b3480156101a9575f5ffd5b506100e67f000000000000000000000000000000000000000000000000000000000000000081565b3480156101dc575f5ffd5b5061014e6101eb36600461076e565b6104d9565b3480156101fb575f5ffd5b5061014e61020a3660046107c6565b6106ce565b5f670de0b6b3a76400006102437f0000000000000000000000000000000000000000000000000000000000000000846107e8565b61024d919061080b565b92915050565b5f546001600160a01b0316331461027d576040516330cd747160e01b815260040160405180910390fd5b6001600160a01b0382166102a45760405163d92e233d60e01b815260040160405180910390fd5b805f036102c45760405163162908e360e11b815260040160405180910390fd5b804710156102e55760405163bb55fd2760e01b815260040160405180910390fd5b5f826001600160a01b0316826040515f6040518083038185875af1925050503d805f811461032e576040519150601f19603f3d011682016040523d82523d5f602084013e610333565b606091505b505090508061035557604051630db2c7f160e31b815260040160405180910390fd5b826001600160a01b03167f233c84dc0c19fbf51f9fa92214ffd8a59f512e0098bff5827455d02e401221c08360405161039091815260200190565b60405180910390a2505050565b60405134815233907fda1785fe1dec267c363b06ae3e02c3e086123f9d611399f7a1cc98492518372e9060200160405180910390a2565b805f036103f45760405163162908e360e11b815260040160405180910390fd5b5f6103fe8261020f565b90508034146104205760405163078d696560e31b815260040160405180910390fd5b6040516340c10f1960e01b8152336004820152602481018390527f00000000000000000000000000000000000000000000000000000000000000006001600160a01b0316906340c10f19906044015f604051808303815f87803b158015610485575f5ffd5b505af1158015610497573d5f5f3e3d5ffd5b5050604080518581523460208201523393507f8fafebcaf9d154343dad25669bfa277f4fbacd7ac6b0c4fed522580e040a0f3392500160405180910390a25050565b805f036104f95760405163162908e360e11b815260040160405180910390fd5b5f6105038261020f565b9050804710156105265760405163bb55fd2760e01b815260040160405180910390fd5b6040516323b872dd60e01b8152336004820152306024820152604481018390527f00000000000000000000000000000000000000000000000000000000000000006001600160a01b0316906323b872dd906064016020604051808303815f875af1158015610596573d5f5f3e3d5ffd5b505050506040513d601f19601f820116820180604052508101906105ba919061082a565b50604051630852cd8d60e31b8152600481018390527f00000000000000000000000000000000000000000000000000000000000000006001600160a01b0316906342966c68906024015f604051808303815f87803b15801561061a575f5ffd5b505af115801561062c573d5f5f3e3d5ffd5b50506040515f925033915083908381818185875af1925050503d805f811461066f576040519150601f19603f3d011682016040523d82523d5f602084013e610674565b606091505b505090508061069657604051630db2c7f160e31b815260040160405180910390fd5b604080518481526020810184905233917fd171fb179b26c49e23fe46eddd44d3048a1ad277b62144ac0725fbcf1dbf6d529101610390565b5f546001600160a01b031633146106f8576040516330cd747160e01b815260040160405180910390fd5b6001600160a01b03811661071f5760405163d92e233d60e01b815260040160405180910390fd5b5f80546001600160a01b038381166001600160a01b0319831681178455604051919092169283917f8be0079c531659141344cd1fd0a4f28419497f9722a3daafe3b4186f6b6457e09190a35050565b5f6020828403121561077e575f5ffd5b5035919050565b6001600160a01b0381168114610799575f5ffd5b50565b5f5f604083850312156107ad575f5ffd5b82356107b881610785565b946020939093013593505050565b5f602082840312156107d6575f5ffd5b81356107e181610785565b9392505050565b808202811582820484141761024d57634e487b7160e01b5f52601160045260245ffd5b5f8261082557634e487b7160e01b5f52601260045260245ffd5b500490565b5f6020828403121561083a575f5ffd5b815180151581146107e1575f5ffdfea26469706673582212208c1cf67a6769cd454288f439e56599a931ce10fe777aabb21e59482b4435f75764736f6c634300081c0033",
  "linkReferences": {},
  "deployedLinkReferences": {},
  "immutableReferences": {
    "376": [
      {
        "length": 32,
        "start": 361
      },
      {
        "length": 32,
        "start": 1084
      },
      {
        "length": 32,
        "start": 1352
      },
      {
        "length": 32,
        "start": 1489
      }
    ],
    "378": [
      {
        "length": 32,
        "start": 431
      },
      {
        "length": 32,
        "start": 542
      }
    ]
  },
  "inputSourceName": "project/contracts/DSTTreasury.sol",
  "buildInfoId": "solc-0_8_28-8619cc2817bb0d5f29b35f284e48d460a35fd281"
}