{
  "_format": "hh3-artifact-1",
  "contractName": "DSTToken",
  "sourceName": "contracts/DSTToken.sol",
  "abi": [
    {
      "inputs": [
        {
          "internalType": "address",
          "name": "initialOwner",
          "type": "address"
        }
      ],
      "stateMutability": "nonpayable",
      "type": "constructor"
    },
    {
      "inputs": [],
      "name": "InsufficientAllowance",
      "type": "error"
    },
    {
      "inputs": [],
      "name": "InsufficientBalance",
      "type": "error"
    },
    {
      "inputs": [],
      "name": "NotOwner",
      "type": "error"
    },
    {
      "inputs": [],
      "name": "Unauthorized",
      "type": "error"
    },
    {
      "inputs": [],
      "name": "ZeroAddress",
      "type": "error"
    },
    {
      "anonymous": false,
      "inputs": [
        {
          "indexed": true,
          "internalType": "address",
          "name": "owner",
          "type": "address"
        },
        {
          "indexed": true,
          "internalType": "address",
          "name": "spender",
          "type": "address"
        },
        {
          "indexed": false,
          "internalType": "uint256",
          "name": "amount",
          "type": "uint256"
        }
      ],
      "name": "Approval",
      "type": "event"
    },
    {
      "anonymous": false,
      "inputs": [
        {
          "indexed": true,
          "internalType": "address",
          "name": "account",
          "type": "address"
        },
        {
          "indexed": false,
          "internalType": "bool",
          "name": "allowed",
          "type": "bool"
        }
      ],
      "name": "MinterUpdated",
      "type": "event"
    },
    {
      "anonymous": false,
      "inputs": [
        {
          "indexed": true,
          "internalType": "address",
          "name": "previousOwner",
          "type": "address"
        },
        {
          "indexed": true,
          "internalType": "address",
          "name": "newOwner",
          "type": "address"
        }
      ],
      "name": "OwnershipTransferred",
      "type": "event"
    },
    {
      "anonymous": false,
      "inputs": [
        {
          "indexed": true,
          "internalType": "address",
          "name": "from",
          "type": "address"
        },
        {
          "indexed": true,
          "internalType": "address",
          "name": "to",
          "type": "address"
        },
        {
          "indexed": false,
          "internalType": "uint256",
          "name": "amount",
          "type": "uint256"
        }
      ],
      "name": "Transfer",
      "type": "event"
    },
    {
      "inputs": [
        {
          "internalType": "address",
          "name": "",
          "type": "address"
        },
        {
          "internalType": "address",
          "name": "",
          "type": "address"
        }
      ],
      "name": "allowance",
      "outputs": [
        {
          "internalType": "uint256",
          "name": "",
          "type": "uint256"
        }
      ],
      "stateMutability": "view",
      "type": "function"
    },
    {
      "inputs": [
        {
          "internalType": "address",
          "name": "spender",
          "type": "address"
        },
        {
          "internalType": "uint256",
          "name": "amount",
          "type": "uint256"
        }
      ],
      "name": "approve",
      "outputs": [
        {
          "internalType": "bool",
          "name": "",
          "type": "bool"
        }
      ],
      "stateMutability": "nonpayable",
      "type": "function"
    },
    {
      "inputs": [
        {
          "internalType": "address",
          "name": "",
          "type": "address"
        }
      ],
      "name": "balanceOf",
      "outputs": [
        {
          "internalType": "uint256",
          "name": "",
          "type": "uint256"
        }
      ],
      "stateMutability": "view",
      "type": "function"
    },
    {
      "inputs": [
        {
          "internalType": "uint256",
          "name": "amount",
          "type": "uint256"
        }
      ],
      "name": "burn",
      "outputs": [],
      "stateMutability": "nonpayable",
      "type": "function"
    },
    {
      "inputs": [],
      "name": "decimals",
      "outputs": [
        {
          "internalType": "uint8",
          "name": "",
          "type": "uint8"
        }
      ],
      "stateMutability": "view",
      "type": "function"
    },
    {
      "inputs": [
        {
          "internalType": "address",
          "name": "to",
          "type": "address"
        },
        {
          "internalType": "uint256",
          "name": "amount",
          "type": "uint256"
        }
      ],
      "name": "mint",
      "outputs": [],
      "stateMutability": "nonpayable",
      "type": "function"
    },
    {
      "inputs": [
        {
          "internalType": "address",
          "name": "",
          "type": "address"
        }
      ],
      "name": "minters",
      "outputs": [
        {
          "internalType": "bool",
          "name": "",
          "type": "bool"
        }
      ],
      "stateMutability": "view",
      "type": "function"
    },
    {
      "inputs": [],
      "name": "name",
      "outputs": [
        {
          "internalType": "string",
          "name": "",
          "type": "string"
        }
      ],
      "stateMutability": "view",
      "type": "function"
    },
    {
      "inputs": [],
      "name": "owner",
      "outputs": [
        {
          "internalType": "address",
          "name": "",
          "type": "address"
        }
      ],
      "stateMutability": "view",
      "type": "function"
    },
    {
      "inputs": [
        {
          "internalType": "address",
          "name": "account",
          "type": "address"
        },
        {
          "internalType": "bool",
          "name": "allowed",
          "type": "bool"
        }
      ],
      "name": "setMinter",
      "outputs": [],
      "stateMutability": "nonpayable",
      "type": "function"
    },
    {
      "inputs": [],
      "name": "symbol",
      "outputs": [
        {
          "internalType": "string",
          "name": "",
          "type": "string"
        }
      ],
      "stateMutability": "view",
      "type": "function"
    },
    {
      "inputs": [],
      "name": "totalSupply",
      "outputs": [
        {
          "internalType": "uint256",
          "name": "",
          "type": "uint256"
        }
      ],
      "stateMutability": "view",
      "type": "function"
    },
    {
      "inputs": [
        {
          "internalType": "address",
          "name": "to",
          "type": "address"
        },
        {
          "internalType": "uint256",
          "name": "amount",
          "type": "uint256"
        }
      ],
      "name": "transfer",
      "outputs": [
        {
          "internalType": "bool",
          "name": "",
          "type": "bool"
        }
      ],
      "stateMutability": "nonpayable",
      "type": "function"
    },
    {
      "inputs": [
        {
          "internalType": "address",
          "name": "from",
          "type": "address"
        },
        {
          "internalType": "address",
          "name": "to",
          "type": "address"
        },
        {
          "internalType": "uint256",
          "name": "amount",
          "type": "uint256"
        }
      ],
      "name": "transferFrom",
      "outputs": [
        {
          "internalType": "bool",
          "name": "",
          "type": "bool"
        }
      ],
      "stateMutability": "nonpayable",
      "type": "function"
    },
    {
      "inputs": [
        {
          "internalType": "address",
          "name": "newOwner",
          "type": "address"
        }
      ],
      "name": "transferOwnership",
      "outputs": [],
      "stateMutability": "nonpayable",
      "type": "function"
    }
  ],
  "bytecode": "0x6080604052348015600e575f5ffd5b50604051610a88380380610a88833981016040819052602b91609f565b806001600160a01b03811660525760405163d92e233d60e01b815260040160405180910390fd5b5f80546001600160a01b0319166001600160a01b03831690811782556040519091907f8be0079c531659141344cd1fd0a4f28419497f9722a3daafe3b4186f6b6457e0908290a3505060ca565b5f6020828403121560ae575f5ffd5b81516001600160a01b038116811460c3575f5ffd5b9392505050565b6109b1806100d75f395ff3fe608060405234801561000f575f5ffd5b50600436106100f0575f3560e01c806370a0823111610093578063cf456ae711610063578063cf456ae71461024b578063dd62ed3e1461025e578063f2fde38b14610288578063f46eccc41461029b575f5ffd5b806370a08231146101cd5780638da5cb5b146101ec57806395d89b4114610216578063a9059cbb14610238575f5ffd5b806323b872dd116100ce57806323b872dd14610178578063313ce5671461018b57806340c10f19146101a557806342966c68146101ba575f5ffd5b806306fdde03146100f4578063095ea7b31461013e57806318160ddd14610161575b5f5ffd5b610128604051806040016040528060158152602001742232b1b2b73a3930a9b1b437b630b9102a37b5b2b760591b81525081565b60405161013591906107ee565b60405180910390f35b61015161014c36600461083e565b6102bd565b6040519015158152602001610135565b61016a60015481565b604051908152602001610135565b610151610186366004610866565b610349565b610193601281565b60405160ff9091168152602001610135565b6101b86101b336600461083e565b610406565b005b6101b86101c83660046108a0565b6104fa565b61016a6101db3660046108b7565b60026020525f908152604090205481565b5f546101fe906001600160a01b031681565b6040516001600160a01b039091168152602001610135565b610128604051806040016040528060038152602001621114d560ea1b81525081565b61015161024636600461083e565b610591565b6101b86102593660046108d7565b6105a6565b61016a61026c366004610910565b600360209081525f928352604080842090915290825290205481565b6101b86102963660046108b7565b610655565b6101516102a93660046108b7565b60046020525f908152604090205460ff1681565b5f6001600160a01b0383166102e55760405163d92e233d60e01b815260040160405180910390fd5b335f8181526003602090815260408083206001600160a01b03881680855290835292819020869055518581529192917f8c5be1e5ebec7d5bd14f71427d1e84f3dd0314c0f7b2291e5b200ac8c7c3b925910160405180910390a35060015b92915050565b6001600160a01b0383165f9081526003602090815260408083203384529091528120548281101561038d576040516313be252b60e01b815260040160405180910390fd5b6103978382610955565b6001600160a01b0386165f81815260036020908152604080832033808552908352928190208590555193845290927f8c5be1e5ebec7d5bd14f71427d1e84f3dd0314c0f7b2291e5b200ac8c7c3b925910160405180910390a36103fb8585856106f5565b506001949350505050565b5f546001600160a01b0316331480159061042f5750335f9081526004602052604090205460ff16155b1561044c576040516282b42960e81b815260040160405180910390fd5b6001600160a01b0382166104735760405163d92e233d60e01b815260040160405180910390fd5b8060015f8282546104849190610968565b90915550506001600160a01b0382165f90815260026020526040812080548392906104b0908490610968565b90915550506040518181526001600160a01b038316905f907fddf252ad1be2c89b69c2b068fc378daa952ba7f163c4a11628f55a4df523b3ef906020015b60405180910390a35050565b335f908152600260205260409020548181101561052a57604051631e9acf1760e31b815260040160405180910390fd5b6105348282610955565b335f9081526002602052604081209190915560018054849290610558908490610955565b90915550506040518281525f9033907fddf252ad1be2c89b69c2b068fc378daa952ba7f163c4a11628f55a4df523b3ef906020016104ee565b5f61059d3384846106f5565b50600192915050565b5f546001600160a01b031633146105d0576040516330cd747160e01b815260040160405180910390fd5b6001600160a01b0382166105f75760405163d92e233d60e01b815260040160405180910390fd5b6001600160a01b0382165f81815260046020908152604091829020805460ff191685151590811790915591519182527fb21afb9ce9be0a676f8f317ff0ca072fb89a4f8ce2d1b6fe80f8755c14f1cb19910160405180910390a25050565b5f546001600160a01b0316331461067f576040516330cd747160e01b815260040160405180910390fd5b6001600160a01b0381166106a65760405163d92e233d60e01b815260040160405180910390fd5b5f80546001600160a01b038381166001600160a01b0319831681178455604051919092169283917f8be0079c531659141344cd1fd0a4f28419497f9722a3daafe3b4186f6b6457e09190a35050565b6001600160a01b03821661071c5760405163d92e233d60e01b815260040160405180910390fd5b6001600160a01b0383165f908152600260205260409020548181101561075557604051631e9acf1760e31b815260040160405180910390fd5b61075f8282610955565b6001600160a01b038086165f908152600260205260408082209390935590851681529081208054849290610794908490610968565b92505081905550826001600160a01b0316846001600160a01b03167fddf252ad1be2c89b69c2b068fc378daa952ba7f163c4a11628f55a4df523b3ef846040516107e091815260200190565b60405180910390a350505050565b602081525f82518060208401528060208501604085015e5f604082850101526040601f19601f83011684010191505092915050565b80356001600160a01b0381168114610839575f5ffd5b919050565b5f5f6040838503121561084f575f5ffd5b61085883610823565b946020939093013593505050565b5f5f5f60608486031215610878575f5ffd5b61088184610823565b925061088f60208501610823565b929592945050506040919091013590565b5f602082840312156108b0575f5ffd5b5035919050565b5f602082840312156108c7575f5ffd5b6108d082610823565b9392505050565b5f5f604083850312156108e8575f5ffd5b6108f183610823565b915060208301358015158114610905575f5ffd5b809150509250929050565b5f5f60408385031215610921575f5ffd5b61092a83610823565b915061093860208401610823565b90509250929050565b634e487b7160e01b5f52601160045260245ffd5b8181038181111561034357610343610941565b808201808211156103435761034361094156fea2646970667358221220a84b624ff3005b4116437df64a3d8ac36acd18bbf2125b5af90d37e68d7449c664736f6c634300081c0033",
  "linkReferences": {},
  "deployedLinkReferences": {},
  "immutableReferences": {},
  "inputSourceName": "project/contracts/DSTToken.sol",
  "buildInfoId": "solc-0_8_28-917b67ffce64231905fba6cab7fd1ffd1b5e0f59"
}