{
  "_format": "hh3-artifact-1",
  "contractName": "ReviewerReputation",
  "sourceName": "contracts/ReviewerReputation.sol",
  "abi": [
    {
      "inputs": [
        {
          "internalType": "address",
          "name": "initialOwner",
          "type": "address"
        }
      ],
      "stateMutability": "nonpayable",
      "type": "constructor"
    },
    {
      "inputs": [],
      "name": "NotOwner",
      "type": "error"
    },
    {
      "inputs": [],
      "name": "Unauthorized",
      "type": "error"
    },
    {
      "inputs": [],
      "name": "ZeroAddress",
      "type": "error"
    },
    {
      "anonymous": false,
      "inputs": [
        {
          "indexed": true,
          "internalType": "address",
          "name": "coordinator",
          "type": "address"
        },
        {
          "indexed": false,
          "internalType": "bool",
          "name": "allowed",
          "type": "bool"
        }
      ],
      "name": "CoordinatorUpdated",
      "type": "event"
    },
    {
      "anonymous": false,
      "inputs": [
        {
          "indexed": true,
          "internalType": "address",
          "name": "previousOwner",
          "type": "address"
        },
        {
          "indexed": true,
          "internalType": "address",
          "name": "newOwner",
          "type": "address"
        }
      ],
      "name": "OwnershipTransferred",
      "type": "event"
    },
    {
      "anonymous": false,
      "inputs": [
        {
          "indexed": true,
          "internalType": "address",
          "name": "reviewer",
          "type": "address"
        },
        {
          "indexed": false,
          "internalType": "int16",
          "name": "reviewerRep",
          "type": "int16"
        },
        {
          "indexed": false,
          "internalType": "uint32",
          "name": "total",
          "type": "uint32"
        },
        {
          "indexed": false,
          "internalType": "uint32",
          "name": "onTime",
          "type": "uint32"
        },
        {
          "indexed": false,
          "internalType": "uint32",
          "name": "late",
          "type": "uint32"
        },
        {
          "indexed": false,
          "internalType": "uint32",
          "name": "missed",
          "type": "uint32"
        }
      ],
      "name": "ReputationUpdated",
      "type": "event"
    },
    {
      "inputs": [],
      "name": "DEFAULT_REP",
      "outputs": [
        {
          "internalType": "int16",
          "name": "",
          "type": "int16"
        }
      ],
      "stateMutability": "view",
      "type": "function"
    },
    {
      "inputs": [],
      "name": "MAX_REP",
      "outputs": [
        {
          "internalType": "int16",
          "name": "",
          "type": "int16"
        }
      ],
      "stateMutability": "view",
      "type": "function"
    },
    {
      "inputs": [],
      "name": "MIN_REP",
      "outputs": [
        {
          "internalType": "int16",
          "name": "",
          "type": "int16"
        }
      ],
      "stateMutability": "view",
      "type": "function"
    },
    {
      "inputs": [
        {
          "internalType": "address",
          "name": "",
          "type": "address"
        }
      ],
      "name": "coordinators",
      "outputs": [
        {
          "internalType": "bool",
          "name": "",
          "type": "bool"
        }
      ],
      "stateMutability": "view",
      "type": "function"
    },
    {
      "inputs": [
        {
          "internalType": "address",
          "name": "reviewer",
          "type": "address"
        }
      ],
      "name": "getReputation",
      "outputs": [
        {
          "internalType": "int16",
          "name": "reviewerRep",
          "type": "int16"
        },
        {
          "internalType": "uint32",
          "name": "total",
          "type": "uint32"
        },
        {
          "internalType": "uint32",
          "name": "onTime",
          "type": "uint32"
        },
        {
          "internalType": "uint32",
          "name": "late",
          "type": "uint32"
        },
        {
          "internalType": "uint32",
          "name": "missed",
          "type": "uint32"
        }
      ],
      "stateMutability": "view",
      "type": "function"
    },
    {
      "inputs": [],
      "name": "owner",
      "outputs": [
        {
          "internalType": "address",
          "name": "",
          "type": "address"
        }
      ],
      "stateMutability": "view",
      "type": "function"
    },
    {
      "inputs": [
        {
          "internalType": "address",
          "name": "reviewer",
          "type": "address"
        }
      ],
      "name": "recordNoShow",
      "outputs": [],
      "stateMutability": "nonpayable",
      "type": "function"
    },
    {
      "inputs": [
        {
          "internalType": "address",
          "name": "reviewer",
          "type": "address"
        },
        {
          "internalType": "bool",
          "name": "onTime",
          "type": "bool"
        }
      ],
      "name": "recordSubmission",
      "outputs": [],
      "stateMutability": "nonpayable",
      "type": "function"
    },
    {
      "inputs": [
        {
          "internalType": "address",
          "name": "coordinator",
          "type": "address"
        },
        {
          "internalType": "bool",
          "name": "allowed",
          "type": "bool"
        }
      ],
      "name": "setCoordinator",
      "outputs": [],
      "stateMutability": "nonpayable",
      "type": "function"
    },
    {
      "inputs": [
        {
          "internalType": "address",
          "name": "newOwner",
          "type": "address"
        }
      ],
      "name": "transferOwnership",
      "outputs": [],
      "stateMutability": "nonpayable",
      "type": "function"
    }
  ],
  "bytecode": "0x6080604052348015600e575f5ffd5b5060405161094b38038061094b833981016040819052602b91609f565b806001600160a01b03811660525760405163d92e233d60e01b815260040160405180910390fd5b5f80546001600160a01b0319166001600160a01b03831690811782556040519091907f8be0079c531659141344cd1fd0a4f28419497f9722a3daafe3b4186f6b6457e0908290a3505060ca565b5f6020828403121560ae575f5ffd5b81516001600160a01b038116811460c3575f5ffd5b9392505050565b610874806100d75f395ff3fe608060405234801561000f575f5ffd5b506004361061009b575f3560e01c8063a652909011610063578063a65290901461017b578063ab05465e1461018e578063bbbfcf2f14610195578063dacfd8be146101a8578063f2fde38b146101b0575f5ffd5b80632e1780321461009f5780638da5cb5b146100b457806390b8552e146100e35780639c89a0e2146100fe578063a48af09614610149575b5f5ffd5b6100b26100ad366004610769565b6101c3565b005b5f546100c6906001600160a01b031681565b6040516001600160a01b0390911681526020015b60405180910390f35b6100eb603281565b60405160019190910b81526020016100da565b61011161010c366004610769565b61031a565b6040805160019690960b865263ffffffff9485166020870152928416928501929092528216606084015216608082015260a0016100da565b61016b610157366004610769565b60016020525f908152604090205460ff1681565b60405190151581526020016100da565b6100b2610189366004610789565b610391565b6100eb5f81565b6100b26101a3366004610789565b610440565b6100eb606481565b6100b26101be366004610769565b610657565b335f9081526001602052604090205460ff161580156101ec57505f546001600160a01b03163314155b15610209576040516282b42960e81b815260040160405180910390fd5b5f610213826106f7565b80549091506001908290600e90610238908490600160701b900463ffffffff166107d6565b825463ffffffff9182166101009390930a92830291909202199091161790555080545f9061026b90600a9060010b6107f8565b90505f600182900b1261027e5780610280565b5f5b825461ffff191661ffff919091161780835560408051600183900b815262010000830463ffffffff9081166020830152600160301b8404811692820192909252600160501b830482166060820152600160701b9092041660808201526001600160a01b038416907faa91e11c68e1cf1ed00736d79e82027694e2e405a232558e73391a5ee6734fe79060a0015b60405180910390a2505050565b6001600160a01b0381165f90815260026020526040812080548291829182918291600160901b900460ff16610350576032610356565b805460010b5b9054909763ffffffff62010000830481169850600160301b830481169750600160501b830481169650600160701b9092049091169350915050565b5f546001600160a01b031633146103bb576040516330cd747160e01b815260040160405180910390fd5b6001600160a01b0382166103e25760405163d92e233d60e01b815260040160405180910390fd5b6001600160a01b0382165f81815260016020908152604091829020805460ff191685151590811790915591519182527fdce074bfc7e53c233c35e7374a69b8669a86fd5111c2f81c2ba3a0613b7cd1ef910160405180910390a25050565b335f9081526001602052604090205460ff1615801561046957505f546001600160a01b03163314155b15610486576040516282b42960e81b815260040160405180910390fd5b5f610490836106f7565b805490915060019082906002906104b490849062010000900463ffffffff166107d6565b92506101000a81548163ffffffff021916908363ffffffff160217905550811561055a57805460019082906006906104fa908490600160301b900463ffffffff166107d6565b825463ffffffff9182166101009390930a92830291909202199091161790555080545f9061052c9060010b600261081b565b90506064600182900b136105405780610543565b60645b825461ffff191661ffff91909116178255506105d7565b80546001908290600a9061057c908490600160501b900463ffffffff166107d6565b825463ffffffff9182166101009390930a92830291909202199091161790555080545f906105af9060049060010b6107f8565b90505f600182900b126105c257806105c4565b5f5b825461ffff191661ffff91909116178255505b805460408051600183900b815263ffffffff62010000840481166020830152600160301b8404811692820192909252600160501b830482166060820152600160701b9092041660808201526001600160a01b038416907faa91e11c68e1cf1ed00736d79e82027694e2e405a232558e73391a5ee6734fe79060a00161030d565b5f546001600160a01b03163314610681576040516330cd747160e01b815260040160405180910390fd5b6001600160a01b0381166106a85760405163d92e233d60e01b815260040160405180910390fd5b5f80546001600160a01b038381166001600160a01b0319831681178455604051919092169283917f8be0079c531659141344cd1fd0a4f28419497f9722a3daafe3b4186f6b6457e09190a35050565b6001600160a01b0381165f9081526002602052604090208054600160901b900460ff1661074e57805472ff00000000000000000000000000000000ffff191672010000000000000000000000000000000000321781555b919050565b80356001600160a01b038116811461074e575f5ffd5b5f60208284031215610779575f5ffd5b61078282610753565b9392505050565b5f5f6040838503121561079a575f5ffd5b6107a383610753565b9150602083013580151581146107b7575f5ffd5b809150509250929050565b634e487b7160e01b5f52601160045260245ffd5b63ffffffff81811683821601908111156107f2576107f26107c2565b92915050565b600182810b9082900b03617fff198112617fff821317156107f2576107f26107c2565b600181810b9083900b01617fff8113617fff19821217156107f2576107f26107c256fea264697066735822122075b153798c145e8288a9ad1605f4c818105d1bd3d337651ec7ba2322d43bd36264736f6c634300081c0033",
  "linkReferences": {},
  "deployedLinkReferences": {},
  "immutableReferences": {},
  "inputSourceName": "project/contracts/ReviewerReputation.sol",
  "buildInfoId": "solc-0_8_28-51dfc4364e3bd72e5183fcb23ab003b435f75edc"
}